:020000040800F2
:100000000000022079470008314500083745000804
:100010003D45000843450008494500080000000030
:1000200000000000000000000000000031BF0008D8
:100030004F4500080000000081C100085D45000830
:10004000C9470008C9470008C9470008C947000850
:10005000C9470008C9470008C9470008C947000840
:10006000C9470008C9470008C9470008C947000830
:10007000C9470008C9470008C9470008C947000820
:10008000C9470008C9470008C9470008C947000810
:10009000C9470008C9470008C9470008C947000800
:1000A000C9470008C9470008C94700087945000842
:1000B0008D450008C9470008A1450008C947000848
:1000C000C9470008C9470008C9470008C9470008D0
:1000D000C9470008C9470008C9470008B5450008D6
:1000E000C9470008C9470008C9470008C9470008B0
:1000F000C9470008C9470008C9470008C9470008A0
:10010000C9470008C9470008C9470008C94700088F
:10011000C9470008C9470008C9470008C94700087F
:10012000C9470008C9470008C9470008C94700086F
:10013000C9470008C9470008C9470008C94700085F
:10014000C9470008C9470008C9470008C94700084F
:10015000C9470008C9470008C9470008C94700083F
:10016000C9470008C9470008C9470008C94700082F
:10017000C9470008C9470008C94700080000000037
:08018000C9470008C947000847
:1001900010B5054C237833B9044B13B10448AFF3C1
:1001A00000800123237010BDF80100200000000032
:1001B000340A010808B5034B1BB103490348AFF3E8
:1001C000008008BD00000000FC010020340A010886
:1001D000034613F8012B002AFBD1181A0138704787
:1001E00001F0FF01102A2BDB10F0070F08D010F8E8
:1001F000013B013A8B422DD010F0070F42B3F6D1EC
:10020000F0B441EA012141EA014122F007047FF004
:1002100000070023F0E80256083C85EA010586EA5B
:10022000010685FA47F5A3FA87F586FA47F6A5FA97
:1002300087F68EB9EED1F0BC01F0FF0102F00702A3
:1002400032B110F8013B013A83EA010313B1F8D14E
:100250000020704701387047002D06BF354603382F
:10026000073815F0010F07D1013015F4807F02BF68
:10027000013015F4C03F0130F0BC0138704700BFB9
:1002800081F0004102E000BF83F0004330B54FEA47
:1002900041044FEA430594EA050F08BF90EA020FB4
:1002A0001FBF54EA000C55EA020C7FEA645C7FEA47
:1002B000655C00F0E2804FEA5454D4EB5555B8BF6A
:1002C0006D420CDD2C4480EA020281EA030382EADB
:1002D000000083EA010180EA020281EA0303362D6D
:1002E00088BF30BD11F0004F4FEA01314FF4801C40
:1002F0004CEA113102D0404261EB410113F0004F52
:100300004FEA03334CEA133302D0524263EB430308
:1003100094EA050F00F0A780A4F10104D5F1200EA6
:100320000DDB02FA0EFC22FA05F2801841F1000101
:1003300003FA0EF2801843FA05F359410EE0A5F1D5
:1003400020050EF1200E012A03FA0EFC28BF4CF006
:10035000020C43FA05F3C01851EBE37101F00045BC
:1003600007D54FF0000EDCF1000C7EEB00006EEBC9
:100370000101B1F5801F1BD3B1F5001F0CD3490853
:100380005FEA30004FEA3C0C04F101044FEA4452AA
:1003900012F5800F80F09A80BCF1004F08BF5FEA31
:1003A000500C50F1000041EB045141EA050130BD11
:1003B0005FEA4C0C404141EB0101013C28BFB1F523
:1003C000801FE9D291F0000F04BF01460020B1FA6E
:1003D00081F308BF2033A3F10B03B3F120020CDA41
:1003E0000C3208DD02F1140CC2F10C0201FA0CF01F
:1003F00021FA02F10CE002F11402D8BFC2F1200C84
:1004000001FA02F120FA0CFCDCBF41EA0C01904039
:10041000E41AA2BF01EB0451294330BD6FEA040482
:100420001F3C1CDA0C340EDC04F11404C4F120026D
:1004300020FA04F001FA02F340EA030021FA04F37F
:1004400045EA030130BDC4F10C04C4F1200220FAD6
:1004500002F001FA04F340EA0300294630BD21FA14
:1004600004F0294630BD94F0000F83F4801306BFDA
:1004700081F480110134013D4EE77FEA645C18BFCE
:100480007FEA655C29D094EA050F08BF90EA020F65
:1004900005D054EA000C04BF1946104630BD91EA5D
:1004A000030F1EBF0021002030BD5FEA545C05D160
:1004B0004000494128BF41F0004130BD14F580049F
:1004C0003CBF01F5801130BD01F0004545F0FE4113
:1004D00041F470014FF0000030BD7FEA645C1ABF48
:1004E000194610467FEA655C1CBF0B46024650EA7F
:1004F000013406BF52EA033591EA030F41F40021AB
:1005000030BD00BF90F0000F04BF0021704730B530
:100510004FF4806404F132044FF000054FF0000105
:1005200050E700BF90F0000F04BF0021704730B5C6
:100530004FF4806404F1320410F0004548BF40429B
:100540004FF000013EE700BF42004FEAE2014FEAF0
:1005500031014FEA02701FBF12F07F4393F07F4FCB
:1005600081F06051704732F07F4208BF704793F0CE
:100570007F4F04BF41F40021704730B54FF46074E1
:1005800001F0004521F000411CE700BF50EA0102E4
:1005900008BF704730B54FF000050AE050EA01028D
:1005A00008BF704730B511F0004502D5404261EBFD
:1005B00041014FF4806404F132045FEA915C3FF43E
:1005C000D8AE4FF003025FEADC0C18BF03325FEADB
:1005D000DC0C18BF033202EBDC02C2F1200300FA8C
:1005E00003FC20FA02F001FA03FE40EA0E0021FAB1
:1005F00002F11444BDE600BF70B54FF0FF0C4CF49F
:10060000E06C1CEA11541DBF1CEA135594EA0C0F50
:1006100095EA0C0F00F0DEF82C4481EA030621EA8B
:100620004C5123EA4C5350EA013518BF52EA0335C6
:1006300041F4801143F4801338D0A0FB02CE4FF078
:100640000005E1FB02E506F00042E0FB03E54FF0A8
:100650000006E1FB03569CF0000F18BF4EF0010EA0
:10066000A4F1FF04B6F5007F64F5407404D25FEA9C
:100670004E0E6D4146EB060642EAC62141EA55514F
:100680004FEAC52040EA5E504FEACE2EB4F1FD0C91
:1006900088BFBCF5E06F1ED8BEF1004F08BF5FEA0F
:1006A000500E50F1000041EB045170BD06F00046C1
:1006B00046EA010140EA020081EA0301B4EB5C046E
:1006C000C2BFD4EB0C0541EA045170BD41F4801166
:1006D0004FF0000E013C00F3AB8014F1360FDEBF8B
:1006E000002001F0004170BDC4F10004203C35DA67
:1006F0000C341BDC04F11404C4F1200500FA05F3EA
:1007000020FA04F001FA05F240EA020001F000428A
:1007100021F0004110EBD37021FA04F642EB060100
:100720005EEA430E08BF20EAD37070BDC4F10C042A
:10073000C4F1200500FA04F320FA05F001FA04F2EE
:1007400040EA020001F0004110EBD37041F10001DA
:100750005EEA430E08BF20EAD37070BDC4F12005E5
:1007600000FA05F24EEA020E20FA04F301FA05F24D
:1007700043EA020321FA04F001F0004121FA04F2F5
:1007800020EA020000EBD3705EEA430E08BF20EAC5
:10079000D37070BD94F0000F0FD101F000464000FF
:1007A00041EB010111F4801F08BF013CF7D041EA81
:1007B000060195F0000F18BF704703F00046520085
:1007C00043EB030313F4801F08BF013DF7D043EA56
:1007D0000603704794EA0C0F0CEA135518BF95EA0C
:1007E0000C0F0CD050EA410618BF52EA4306D1D193
:1007F00081EA030101F000414FF0000070BD50EAB2
:10080000410606BF1046194652EA430619D094EA3B
:100810000C0F02D150EA013613D195EA0C0F05D125
:1008200052EA03361CBF104619460AD181EA030179
:1008300001F0004141F0FE4141F470014FF0000031
:1008400070BD41F0FE4141F4780170BD70B54FF0CC
:10085000FF0C4CF4E06C1CEA11541DBF1CEA13554C
:1008600094EA0C0F95EA0C0F00F0A7F8A4EB05042E
:1008700081EA030E52EA03354FEA013100F0888025
:100880004FEA03334FF0805545EA131343EA1263EE
:100890004FEA022245EA111545EA10654FEA0026A3
:1008A0000EF000419D4208BF964244F1FD0404F55C
:1008B000407402D25B084FEA3202B61A65EB0305B8
:1008C0005B084FEA32024FF480104FF4002CB6EB75
:1008D000020E75EB030E22BFB61A754640EA0C00F5
:1008E0005B084FEA3202B6EB020E75EB030E22BF35
:1008F000B61A754640EA5C005B084FEA3202B6EB76
:10090000020E75EB030E22BFB61A754640EA9C0034
:100910005B084FEA3202B6EB020E75EB030E22BF04
:10092000B61A754640EADC0055EA060E18D04FEAC2
:10093000051545EA16754FEA06164FEAC30343EA62
:1009400052734FEAC2025FEA1C1CC0D111F4801F2F
:100950000BD141EA00014FF000004FF0004CB6E728
:1009600011F4801F04BF01430020B4F1FD0C88BFC7
:10097000BCF5E06F3FF6AFAEB5EB030C04BFB6EBD2
:10098000020C5FEA500C50F1000041EB045170BDC5
:100990000EF0004E4EEA113114EB5C04C2BFD4EBF2
:1009A0000C0541EA045170BD41F480114FF0000E76
:1009B000013C90E645EA060E8DE60CEA135594EAF2
:1009C0000C0F08BF95EA0C0F3FF43BAF94EA0C0FF5
:1009D0000AD150EA01347FF434AF95EA0C0F7FF46A
:1009E00025AF104619462CE795EA0C0F06D152EABE
:1009F00003353FF4FDAE1046194622E750EA4106A2
:100A000018BF52EA43067FF4C5AE50EA41047FF4B2
:100A10000DAF52EA43057FF4EBAE12E74FF0FF3C17
:100A200006E000BF4FF0010C02E000BF4FF0010CE8
:100A30004DF804CD4FEA410C7FEA6C5C4FEA430C61
:100A400018BF7FEA6C5C1BD001B050EA410C0CBFB0
:100A500052EA430C91EA030F02BF90EA020F002012
:100A6000704710F1000F91EA030F58BF994208BF79
:100A700090422CBFD8176FEAE37040F00100704736
:100A80004FEA410C7FEA6C5C02D150EA013C07D18D
:100A90004FEA430C7FEA6C5CD6D152EA033CD3D0D8
:100AA0005DF8040B704700BF8446104662468C46D2
:100AB0001946634600E000BF01B5FFF7B7FF002805
:100AC00048BF10F1000F01BD4DF808EDFFF7F4FF2E
:100AD0000CBF012000205DF808FB00BF4DF808EDB9
:100AE000FFF7EAFF34BF012000205DF808FB00BFDC
:100AF0004DF808EDFFF7E0FF94BF012000205DF8FE
:100B000008FB00BF4DF808EDFFF7CEFF94BF0120B2
:100B100000205DF808FB00BF4DF808EDFFF7C4FFAB
:100B200034BF012000205DF808FB00BF4FEA410CF4
:100B30007FEA6C5C02D150EA013C0AD14FEA430CD7
:100B40007FEA6C5C02D152EA033C02D14FF0000014
:100B500070474FF0010070474FEA410212F5001252
:100B600015D211D56FF47873B3EB625212D94FEAF4
:100B7000C12343F0004343EA505311F0004F23FADE
:100B800002F018BF404270474FF00000704750EA33
:100B9000013005D111F0004008BF6FF000407047F0
:100BA0004FF00000704700BF4A0011D212F500124A
:100BB00011D20DD56FF47873B3EB62520ED44FEAB5
:100BC000C12343F0004343EA505323FA02F0704735
:100BD0004FF00000704750EA013002D14FF0FF3073
:100BE00070474FF0000070474FEA4102B2F1E04316
:100BF00024BFB3F5001CDCF1FE5C0DD901F0004C04
:100C00004FEAC0024CEA5070B2F1004F40EB830053
:100C100008BF20F00100704711F0804F21D113F17F
:100C20003872BCBF01F00040704741F480114FEAB8
:100C30005252C2F11802C2F1200C10FA0CF320FA41
:100C400002F018BF40F001004FEAC1234FEAD3235E
:100C500003FA0CFC40EA0C0023FA02F34FEA4303C8
:100C6000CCE77FEA625307D150EA01331EBF4FF051
:100C7000FE4040F44000704701F0004040F0FE406C
:100C800040F40000704700BF53B94AB9002908BFBB
:100C900000281CBF4FF0FF314FF0FF3000F074B957
:100CA000ADF1080C6DE904CE00F006F8DDF804E0C3
:100CB000DDE9022304B070472DE9F047089D0446A2
:100CC0008E46002B4DD18A42944669D9B2FA82F2FF
:100CD00052B101FA02F3C2F1200120FA01F10CFA3B
:100CE00002FC41EA030E94404FEA1C48210CBEFB73
:100CF000F8F61FFA8CF708FB16E341EA034306FBFC
:100D000007F199420AD91CEB030306F1FF3080F08A
:100D10001F81994240F21C81023E63445B1AA4B2D7
:100D2000B3FBF8F008FB103344EA034400FB07F779
:100D3000A7420AD91CEB040400F1FF3380F00A81BA
:100D4000A74240F207816444023840EA0640E41BAF
:100D500000261DB1D4400023C5E900433146BDE85B
:100D6000F0878B4209D9002D00F0EF800026C5E9FD
:100D7000000130463146BDE8F087B3FA83F6002E15
:100D80004AD18B4202D3824200F2F980841A61EB8D
:100D9000030301209E46002DE0D0C5E9004EDDE7AB
:100DA00002B9FFDEB2FA82F2002A40F09280A1EB93
:100DB0000C014FEA1C471FFA8CFE0126200CB1FBE8
:100DC000F7F307FB131140EA01410EFB03F08842E1
:100DD00008D91CEB010103F1FF3802D2884200F26E
:100DE000CB804346091AA4B2B1FBF7F007FB101100
:100DF00044EA01440EFB00FEA64508D91CEB04049E
:100E000000F1FF3102D2A64500F2BB800846A4EBF8
:100E10000E0440EA03409CE7C6F12007B34022FAE3
:100E200007FC4CEA030C20FA07F401FA06F31C4312
:100E3000F9404FEA1C4900FA06F3B1FBF9F8200C1F
:100E40001FFA8CFE09FB181140EA014108FB0EF065
:100E5000884202FA06F20BD91CEB010108F1FF3AB5
:100E600080F08880884240F28580A8F102086144C1
:100E7000091AA4B2B1FBF9F009FB101144EA0141CF
:100E800000FB0EFE8E4508D91CEB010100F1FF347A
:100E90006CD28E456AD90238614440EA0840A0FB12
:100EA0000294A1EB0E01A142C846A64656D353D0E8
:100EB0005DB1B3EB080261EB0E0101FA07F722FA0C
:100EC00006F3F1401F43C5E9007100263146BDE835
:100ED000F087C2F12003D8400CFA02FC21FA03F398
:100EE000914001434FEA1C471FFA8CFEB3FBF7F019
:100EF00007FB10360B0C43EA064300FB0EF69E423E
:100F000004FA02F408D91CEB030300F1FF382FD2D6
:100F10009E422DD9023863449B1B89B2B3FBF7F67E
:100F200007FB163341EA034106FB0EF38B4208D957
:100F30001CEB010106F1FF3816D28B4214D9023E98
:100F40006144C91A46EA004638E72E46284605E7B6
:100F50000646E3E61846F8E64B45A9D2B9EB020887
:100F600064EB0C0E0138A3E74646EAE7204694E717
:100F70004046D1E7D0467BE7023B614432E730464A
:100F800009E76444023842E7704700BF80B483B089
:100F900000AF78607B684FF00002DA617B684FF049
:100FA00000021A627B684FF000029A627B684FF081
:100FB0000002DA6200BF0C37BD465DF8047B704763
:100FC00080B582B000AF78607B680C4A9A617B681C
:100FD0004FF07C521A607B684FF000025A607B68C9
:100FE000074A5A617B684FF000021A617868FFF780
:100FF000CDFF00BF0837BD4680BD00BFCDCC4C3E05
:101000000080BB4580B489B000AFF86087ED020A6C
:10101000C7ED010A396097ED017AD7ED027A77EED4
:10102000677AC7ED077A97ED077AD7ED077AB4EEBE
:10103000677AF1EE10FA02D74FF00003FB61D7EDAB
:10104000077AF5EEC07AF1EE10FA1BDBFB6893ED40
:10105000007A97ED076AD7ED016AC6EE267A67EE49
:10106000277AB7EE007A37EE877A3B6807EE903A38
:10107000F8EEE77A67EE277AFDEEE77A17EE903A18
:10108000BB611AE0FB6893ED007A97ED076AD7ED34
:10109000026AC6EE267A67EE277AB7EE007A37EE56
:1010A000877A3B6807EE903AF8EEE77A67EE277AA0
:1010B000FDEEE77A17EE903ABB61FB6893ED077A95
:1010C000FB68D3ED017AF6EE006A67EEA66AFB686C
:1010D000D3ED067A66EEA76AFB6893ED086AD7ED52
:1010E000077A76EE277A66EEA76A3B6807EE903AB3
:1010F000F8EEE77A66EEA77A77EE277AFB68C3ED1B
:10110000077AFB6893ED057ABB6907EE903AF8EE33
:10111000E77AB4EEE77AF1EE10FA0FDDFB6893EDB3
:10112000057ABB6907EE903AF8EEE77A77EE677AD0
:10113000FDEEE77A17EE903A3B6101E000233B6158
:10114000FB6893ED047ABB6907EE903AF8EEE77A14
:10115000B4EEE77AF1EE10FA0FD5FB6893ED047A5E
:10116000BB6907EE903AF8EEE77A77EE677AFDEE24
:10117000E77A17EE903A7B6101E000237B61FB6820
:1011800093ED077A3B6907EE903AF8EEE77AB4EE12
:10119000E77AF1EE10FA08DD3B6907EE903AF8EED7
:1011A000E77AFB68C3ED077A14E0FB6893ED077AF2
:1011B0007B6907EE903AF8EEE77AB4EEE77AF1EE63
:1011C00010FA07D57B6907EE903AF8EEE77AFB68EC
:1011D000C3ED077ABB6907EE903AB8EEE77AFB6891
:1011E000D3ED077A77EE277AFB68C3ED0B7AFB68BD
:1011F00093ED0B7AFB68D3ED057AB4EEE77AF1EE66
:1012000010FA04DDFB685A69FB68DA620EE0FB68DD
:1012100093ED0B7AFB68D3ED047AB4EEE77AF1EE46
:1012200010FA03D5FB681A69FB68DA62FB68FA6991
:101230001A62FB68BA689A62FB68D3ED0B7AFDEE1E
:10124000E77A17EE903A18462437BD465DF8047BDE
:101250007047000080B582B000AF0023FB7126E02C
:10126000FB79503BDBB20021184600F02BF800213F
:10127000002000F027F80021102000F023F80023C0
:10128000BB710DE0BA79FB790D49D2000A441344D1
:101290001B780121184600F015F8BB790133BB71AA
:1012A00097F90630002BEDDAFB790133FB71FB79FE
:1012B000072BD5D900BF00BF0837BD4680BD00BF92
:1012C0001402002080B584B000AF03460A46FB71CB
:1012D0001346BB71BB79002B06D001224FF48071FD
:1012E0001C4804F049FA05E000224FF480711948C7
:1012F00004F042FA0023FB731EE00022202115486F
:1013000004F03AFA97F90730002B05DA0122402160
:10131000104804F031FA04E0002240210D4804F0A6
:101320002BFA012220210B4804F026FAFB795B00FE
:10133000FB71FB7B0133FB73FB7B072BDDD90122A8
:101340004FF48071034804F017FA00BF1037BD4610
:1013500080BD00BF0010024080B582B000AF002306
:10136000FB7114E00023BB710AE0BA79FB790C49E8
:10137000D2000A44134400221A70BB790133BB71B6
:1013800097F90630002BF0DAFB790133FB71FB791A
:10139000072BE7D9FFF75EFF00BF0837BD4680BDCA
:1013A0001402002080B485B000AF0346FB710B46E9
:1013B000BB7113467B710023FB7397F90730002B39
:1013C00041DBBB793F2B3ED8BB79DB08DBB2C3F1F5
:1013D0000703BB73BB7903F007037B737B7BC3F10C
:1013E0000703012202FA03F3FB737B79002B12D06F
:1013F000FA79BB7B1749D2000A4413441878FA796A
:10140000BB7BF97B0143C8B21249D2000A441344A2
:1014100002461A7018E0FA79BB7B0E49D2000A44E2
:1014200013441B785AB297F90F30DB435BB2134079
:1014300059B2FA79BB7BC8B20649D2000A441344B8
:1014400002461A7000E000BF1437BD465DF8047B09
:10145000704700BF1402002090B585B000AF04466D
:10146000084611461A462346FB710346BB710B46DC
:101470007B7113463B71BB793B737B79203B7B715E
:101480000023BB734DE03B790C2B0BD17A79B97BF0
:10149000284813465B0013449B0003440B441B780D
:1014A000FB7307E07A79BB7B234912010A4413449A
:1014B0001B78FB7300237B732DE097F90F30002B13
:1014C00007DA97F82020B979FB791846FFF76AFF09
:1014D0000CE097F82030002B0CBF01230023DBB277
:1014E0001A46B979FB791846FFF75CFFFB7B5B0076
:1014F000FB73BB790133BB71BA793B7BD21A3B7961
:101500009A4205D13B7BBB71FB790133FB7105E04E
:101510007B7B01337B737B7B072BCED9BB7B01337A
:10152000BB73BA7B3B799A42ADD300BF00BF14377F
:10153000BD4690BD600B0108D40F010880B584B092
:1015400002AF03463A60FB710B46BB711FE0FB79AB
:101550007A2B04D90023FB71BB791033BB71BB79A3
:101560003A2B05D90023FB71FB79BB71FFF7F4FE21
:101570003B681A78B979F879012300930C23FFF7B7
:101580006BFFFB790833FB713B6801333B603B68C1
:101590001B78002BDBD100BF00BF0837BD4680BDE4
:1015A00080B500AF05F098F8414B1B6F404A23F01F
:1015B000010313673E4B1B6F3D4A23F0040313677F
:1015C00005F09EF8002280213A4804F0D5F8642006
:1015D00003F06EF901228021364804F0CDF8002195
:1015E000AE20FFF76FFE0021D520FFF76BFE002134
:1015F0005020FFF767FE0021A820FFF763FE0021BF
:101600003F20FFF75FFE0021D320FFF75BFE0021A4
:101610000020FFF757FE00214020FFF753FE002176
:101620008D20FFF74FFE00211420FFF74BFE002115
:101630002020FFF747FE00210220FFF743FE002194
:10164000A120FFF73FFE0021C020FFF73BFE002155
:10165000DA20FFF737FE00211220FFF733FE0021CA
:101660008120FFF72FFE0021EF20FFF72BFE002146
:10167000D920FFF727FE0021F120FFF723FE0021EC
:10168000DB20FFF71FFE00213020FFF71BFE0021AB
:10169000A420FFF717FE0021A620FFF713FE00216C
:1016A000AF20FFF70FFEFFF757FE00BF80BD00BF62
:1016B000003802400010024080B500AF03F086F809
:1016C00000F0B6F800F06EFC00F098FB00F07EFA37
:1016D00000F0DEF900F03CFC00F0CCFA00F01EFB5C
:1016E00000F0A8F900F002F900F052F9FFF758FFF6
:1016F0002E4B1B689BB21A462D492E4807F027FA3D
:1017000008F0F2F92C4A00212C4808F037FA034679
:101710002B4A13602B4A00212B4808F02FFA03466E
:101720002A4A13602A4A00212A4808F027FA034669
:10173000294A1360294A0021294808F01FFA034664
:10174000284A1360284A0021284808F017FA03465F
:10175000274A1360274A0021274808F00FFA03465A
:10176000264A1360264A0021264808F007FA034655
:10177000254A1360254A0021254808F0FFF9034651
:10178000244A1360244A0021244808F0F7F903464C
:10179000234A1360234A0021234808F0EFF9034647
:1017A000224A136008F0C4F9FEE700BF00000020E1
:1017B000CC08002060080020C41501085130000842
:1017C000A4080020E815010891350008A8080020A9
:1017D0000C160108F5350008AC0800203016010889
:1017E000893A0008B008002054160108A13C0008FE
:1017F000B408002078160108B13C0008B8080020A1
:101800009C160108C13C0008BC080020C016010855
:10181000D13C0008C0080020E4160108E13D0008A2
:10182000C408002008170108A53F0008C8080020C8
:1018300080B594B000AF07F1200330220021184694
:101840000AF088FF07F10C0300221A605A609A60C0
:10185000DA601A610023BB60224B1B6C214A43F003
:10186000805313641F4B1B6C03F08053BB60BB6839
:1018700000237B601C4B1B681B4A43F480431360AE
:10188000194B1B6803F480437B607B6802233B6237
:101890000123FB6210233B630023BB6307F120039A
:1018A000184604F041FF0346002B01D002F082FBF2
:1018B0000F23FB6000233B6100237B610023BB619E
:1018C0000023FB6107F10C030021184605F0A4F981
:1018D0000346002B01D002F06DFB00BF5037BD4620
:1018E00080BD00BF003802400070004080B584B069
:1018F00000AF3B4600221A605A609A60DA60214BC2
:10190000214A1A601F4B00225A601E4B00229A6027
:101910001C4B00221A611B4B00221A76194B002225
:1019200083F82020174B0022DA62164B174A9A627E
:10193000144B0022DA60134B0122DA61114B0022B2
:1019400083F830200F4B01225A610E4802F0D4FF79
:101950000346002B01D002F02DFB0B233B6001233B
:101960007B600023BB603B461946064803F0A6F99E
:101970000346002B01D002F01DFB00BF1037BD460F
:1019800080BD00BF14060020002001400100000FB0
:1019900080B584B000AF3B4600221A605A609A605E
:1019A000DA60214B214A1A601F4B00225A601E4BFD
:1019B00000229A601C4B00221A611B4B00221A76EF
:1019C000194B002283F82020174B0022DA62164BB5
:1019D000174A9A62144B0022DA60134B0122DA6133
:1019E000114B002283F830200F4B01225A610E4820
:1019F00002F082FF0346002B01D002F0DBFA0C2339
:101A00003B6001237B600023BB603B4619460648D0
:101A100003F054F90346002B01D002F0CBFA00BFCB
:101A20001037BD4680BD00BF5C060020002101408C
:101A30000100000F80B500AF124B134A1A60114B22
:101A4000124A5A600F4B00229A600E4B0022DA6055
:101A50000C4B4FF480421A610A4B00225A61094B29
:101A600000229A61074B0022DA61064B00221A62BB
:101A7000044803F09BFE0346002B01D002F09AFAC3
:101A800000BF80BDA406002000540040A0860100D5
:101A900080B596B000AF07F1480300221A605A6083
:101AA0009A60DA6007F1400300221A605A6007F179
:101AB000240300221A605A609A60DA601A615A613F
:101AC0009A613B1D2022002118460AF043FE3D4B3F
:101AD0003D4A1A603B4BA0225A603A4B00229A6062
:101AE000384B4FF47A72DA60364B00221A61354B6C
:101AF00000225A61334B80229A61324805F06CFA19
:101B00000346002B01D002F055FA4FF48053BB641A
:101B100007F1480319462B4806F0EAF80346002B64
:101B200001D002F047FA274805F0A5FA0346002B3A
:101B300001D002F03FFA00233B6400237B6407F1ED
:101B4000400319461F4806F041FE0346002B01D012
:101B500002F030FA60237B620023BB620023FB6249
:101B600000237B630023BB630023FB6307F1240393
:101B70000C221946134805F0F9FF0346002B01D04B
:101B800002F018FA00237B600023BB600023FB6097
:101B900000233B6100237B614FF40053BB610023B2
:101BA0003B623B1D1946074806F08CFE0346002B9E
:101BB00001D002F0FFF9034802F030FC00BF5837B3
:101BC000BD4680BDF80600200000014080B58CB005
:101BD00000AF07F10C032422002118460AF0BAFDD9
:101BE0003B1D00221A605A60214B4FF080421A6060
:101BF0001F4B00225A601E4B00229A601C4B4FF66E
:101C0000FF72DA601A4B00221A61194B00229A61A6
:101C10000323FB6000233B6101237B610023BB6145
:101C20000A23FB6100233B6201237B620023BB622A
:101C30000A23FB6207F10C0319460D4805F0BEFCB0
:101C40000346002B01D002F0B5F900237B6000238E
:101C5000BB603B1D1946064806F0B8FD0346002B45
:101C600001D002F0A7F900BF3037BD4680BD00BFEC
:101C70004007002080B58CB000AF07F10C03242290
:101C8000002118460AF066FD3B1D00221A605A60CA
:101C9000204B214A1A601F4B00225A601D4B002224
:101CA0009A601C4B4FF6FF72DA601A4B00221A61E1
:101CB000184B00229A610323FB6000233B61012340
:101CC0007B610023BB610A23FB6100233B6201238C
:101CD0007B620023BB620A23FB6207F10C031946F7
:101CE0000C4805F06BFC0346002B01D002F062F9B2
:101CF00000237B600023BB603B1D1946054806F0AE
:101D000065FD0346002B01D002F054F900BF3037C7
:101D1000BD4680BD880700200004004080B58AB021
:101D200000AF07F1180300221A605A609A60DA6067
:101D300007F1100300221A605A603B4600221A6025
:101D40005A609A60DA602B4B2B4A1A60294B0F229B
:101D50005A60284B00229A60264B4FF6FF72DA60D9
:101D6000244B00221A61234B00229A61214805F07E
:101D700033F90346002B01D002F01CF94FF48053D5
:101D8000BB6107F1180319461A4805F0B1FF034675
:101D9000002B01D002F00EF9164805F08DFA03462B
:101DA000002B01D002F006F900233B6100237B6188
:101DB00007F1100319460F4806F008FD0346002BF3
:101DC00001D002F0F7F80A233B6001237B60002377
:101DD000BB600023FB603B4600221946054805F026
:101DE00029FE0346002B01D002F0E4F800BF28379B
:101DF000BD4680BDD00700200008004080B596B0E9
:101E000000AF07F1480300221A605A609A60DA6056
:101E100007F1400300221A605A6007F124030022F0
:101E20001A605A609A60DA601A615A619A613B1DC1
:101E30002022002118460AF08DFC434B434A1A60C9
:101E4000414B00225A60404B00229A603E4B41F6C3
:101E50001F42DA603C4B00221A613B4B00225A6160
:101E6000394B00229A61384805F0B6F80346002B3A
:101E700001D002F09FF84FF48053BB6407F1480390
:101E80001946314805F034FF0346002B01D002F01B
:101E900091F82D4805F0EFF80346002B01D002F031
:101EA00089F800233B6400237B6407F14003194653
:101EB000254806F08BFC0346002B01D002F07AF88F
:101EC00060237B620023BB620023FB6200233B6331
:101ED00000237B630023BB630023FB6307F1240320
:101EE00000221946184805F041FE0346002B01D098
:101EF00002F060F807F1240304221946124805F0A5
:101F000035FE0346002B01D002F054F800237B601D
:101F10000023BB600023FB6000233B6100237B6147
:101F20004FF40053BB6100233B623B1D194606483A
:101F300006F0C8FC0346002B01D002F03BF800BFBE
:101F40005837BD4680BD00BF18080020000401407E
:101F500080B500AF114B124A1A60104B4FF4E132BA
:101F60005A600E4B00229A600C4B0022DA600B4B39
:101F700000221A61094B0C225A61084B00229A6117
:101F8000064B0022DA61054806F002FD0346002BED
:101F900001D002F00FF800BF80BD00BF6008002034
:101FA0000048004080B58AB000AF07F1140300225A
:101FB0001A605A609A60DA601A6100233B61384BFC
:101FC0001B6B374A43F010031363354B1B6B03F055
:101FD00010033B613B690023FB60314B1B6B304AB4
:101FE00043F0040313632E4B1B6B03F00403FB60ED
:101FF000FB680023BB602A4B1B6B294A43F001039B
:102000001363274B1B6B03F00103BB60BB6800230A
:102010007B60234B1B6B224A43F008031363204B66
:102020001B6B03F008037B607B6800233B601C4B49
:102030001B6B1B4A43F002031363194B1B6B03F02A
:1020400002033B603B6800224FF45E61154803F0D9
:1020500093FB00223C21144803F08EFB4FF45E6397
:102060007B610123BB610023FB6100233B6207F11D
:10207000140319460B4803F0E3F93C237B61012369
:10208000BB610023FB6102233B6207F11403194685
:10209000054803F0D5F900BF2837BD4680BD00BF15
:1020A00000380240001002400000024080B400AF3F
:1020B000064B1B6800225A63044B1B6800229A637C
:1020C00000BFBD465DF8047B704700BF18080020C4
:1020D00080B500AF40F6C4139BB2323B9AB2154BA9
:1020E0001A8040F6C4139AB2134B1A8001220821B9
:1020F000124803F041FB00220421104803F03CFB8E
:102100000D4B1A880E4B1B685A63012210210B4895
:1021100003F032FB00222021084803F02DFB054B81
:102120001A88074B1B689A630A2002F0C1FB00BFA4
:1021300080BD00BF340900203609002000000240A5
:102140001808002080B500AF40F6C4139AB2174BB0
:102150001A8040F6C4139AB2154B1A80154B1B68AF
:1021600087221A6400220821134803F005FB01228C
:102170000421114803F000FB0D4B1A880F4B1B681C
:102180005A63002210210C4803F0F6FA01222021A4
:10219000094803F0F1FA054B1A88084B1B689A634B
:1021A0004FF4967002F084FB00BF80BD360900201A
:1021B00034090020F8060020000002401808002022
:1021C00080B582B000AF87ED010A00F087F9FFF714
:1021D0007FFF0A4B1B685A221A64D7ED017AFCEE86
:1021E000E77A17EE900A02F063FB00F077F9FFF749
:1021F0005DFF00BF0837BD4680BD00BFF806002068
:1022000080B582B000AF87ED010A00F067F9FFF7F3
:102210005FFF0A4B1B68CE221A64D7ED017AFCEEF1
:10222000E77A17EE900A02F043FB00F057F9FFF748
:102230003DFF00BF0837BD4680BD00BFF806002047
:1022400080B582B000AF87ED010A00F047F9FFF7D3
:1022500079FF0A4B1B68CE221A64D7ED017AFCEE97
:10226000E77A17EE900A02F023FB00F037F9FFF748
:102270001DFF00BF0837BD4680BD00BFF806002027
:1022800080B582B000AF87ED010A00F027F94FF466
:102290007A7002F00DFBFFF755FFFA2002F008FB01
:1022A000094B1B685A221A64D7ED017AFCEEE77AD3
:1022B00017EE900A02F0FCFA00F010F9FFF7F6FEB4
:1022C00000BF0837BD4680BDF806002080B584B049
:1022D00000AF786000F002F94FF47A7002F0E8FA8B
:1022E000FFF7F6FE7B685A2B0FD07B68B42B09D022
:1022F0007B68B3F5877F02D141F2504307E041F696
:10230000BC3304E040F6746301E040F29E73FB606E
:10231000FB6807EE903AF8EEE77AB0EE670AFFF74F
:102320006FFF9FED0B0AFFF7ABFF992000F03AF922
:102330004FF4FA7002F0BCFAFFF7CAFE642002F014
:10234000B7FAFFF7B3FE00BF1037BD4680BD00BF30
:1023500000803B4480B584B000AF7860882000F0F6
:1023600021F94FF47A7002F0A3FAFFF7B1FE7B680F
:102370005A2B0FD07B68B42B09D07B68B3F5877FCD
:1023800002D141F2D47307E04FF4FA5304E04FF462
:102390007A6301E040F60203FB60FB6807EE903AC7
:1023A000F8EEE77AB0EE670AFFF70AFF9FED0A0A38
:1023B000FFF746FF882000F0F5F84FF4FA7002F0BE
:1023C00077FAFFF785FE642002F072FAFFF76EFEDF
:1023D00000BF1037BD4680BD00803B4480B582B051
:1023E00000AF786000F07AF84FF47A7002F060FA8B
:1023F000B42000F069FA4FF4FA7002F059FAFFF7CE
:1024000067FE41F2707002F053FAB42000F020FA37
:102410009FED040AFFF734FFFFF748FE00BF0837BF
:10242000BD4680BD00803B4480B582B000AF78607F
:1024300000F054F84FF47A7002F03AFAB42000F049
:1024400007FA4FF4FA7002F033FAFFF741FE41F257
:10245000707002F02DFAB42000F036FA9FED040AF5
:10246000FFF7EEFEFFF722FE00BF0837BD4680BD36
:1024700000803B4480B500AF00220421094803F0EE
:102480007BF901220821074803F076F90022202178
:10249000044803F071F901221021024803F06CF99D
:1024A00000BF80BD0000024080B500AF01220421C2
:1024B000094803F061F900220821074803F05CF99C
:1024C00001222021044803F057F90022102102487C
:1024D00003F052F900BF80BD0000024080B582B019
:1024E00000AF0F4B1B681B6C602B02D191237B60EC
:1024F00001E07F237B600A4B1B681B6C7A689A4261
:102500000AD0074B1B687A681A64064B00221A60CF
:10251000C82007F0C5FB00E000BF0837BD4680BDFE
:10252000F80600205809002080B582B000AF602373
:102530007B600A4B1B681B6C7A689A420AD0074B77
:102540001B687A681A64064B01221A60C82007F0DB
:10255000A7FB00E000BF0837BD4680BDF80600209D
:102560005809002080B582B000AFC8237B600B4BB8
:102570001B681B6C7A689A420BD0084B1B687A6800
:102580001A64074B4FF0FF321A60C82007F088FB2F
:1025900000E000BF0837BD4680BD00BFF806002040
:1025A0005809002080B582B000AF7860084B1B68E6
:1025B0001A6C7B689A4207D0054B1B687A681A64CC
:1025C000C82007F06DFB00E000BF0837BD4680BDA6
:1025D000F806002080B59EB000AF87ED030AB86012
:1025E00079600021934804F09FFD0421914804F094
:1025F0009BFD0C21904804F097FD40F6C41303F5B1
:10260000C8737B6740F6C4133B6501233B674FF0FB
:102610000003FB664FF00003BB664FF00003FB6452
:102620004FF00003BB64BB68002B0AD0FFF722FF0A
:10263000D7ED037A9FED817A67EE877AC7ED117A3D
:102640000CE0FFF731FF7B6F96337B67D7ED037AA2
:102650009FED7A7A67EE877AC7ED117A7B68B3F1DE
:10266000FF3F02D1FFF760FF07E07B68012B02D13B
:10267000FFF778FF01E0FFF731FF714B1B685B6AE2
:102680007B66704B1B685B6A3B6602F005F97865F8
:102690007B6D3B64674B1B687A6F5A63654B1B68A5
:1026A0003A6D9A63BBE002F0F7F802467B6DD31AED
:1026B000322B40F2B480624B1B685B6AFB63614B58
:1026C0001B685B6ABB635E4B1B681B6803F01003EF
:1026D000102B10D1FA6B7B6E9A4204DA7A6EFB6B88
:1026E000D31AFB6515E0FB6BC3F57F43FF337A6EAE
:1026F0001344FB650DE0FA6B7B6E9A4204DDFA6BC6
:102700007B6ED31AFB6504E07B6EC3F57F43FF331A
:10271000FB654C4B1B681B6803F01003102B10D19A
:10272000BA6B3B6E9A4204DA3A6EBB6BD31ABB6546
:1027300015E0BB6BC3F57F43FF333A6E1344BB65B3
:102740000DE0BA6B3B6E9A4204DDBA6B3B6ED31A56
:10275000BB6504E03B6EC3F57F43FF33BB65384B7D
:102760001B685B6A7B66374B1B685B6A3B6602F0E3
:1027700093F87865FB6D07EE903AF8EEE76A324B16
:102780001B6807EE903AF8EEE77A86EEA77A2F4BB1
:10279000D3ED007A67EE277AC7ED137A97ED1B7AAF
:1027A000D7ED137A77EE277AC7ED1B7ABB6D07EE6C
:1027B000903AF8EEE76A244B1B6807EE903AF8EE81
:1027C000E77A86EEA77A214BD3ED007A67EE277A77
:1027D000C7ED127A97ED1A7AD7ED127A77EE277A4B
:1027E000C7ED1A7A97ED1B7AD7ED037AB4EEE77A44
:1027F000F1EE10FA09DA97ED1A7AD7ED037AB4EE12
:10280000E77AF1EE10FA00DA09E00A4B1B680022C1
:102810005A63084B1B6800229A6300233B673B6F97
:10282000002B7FF440AF642002F042F800BF7837FD
:10283000BD4680BD18080020F8060020295C8F3EA8
:102840004007002088070020080000200C0000201E
:1028500080B582B000AF7860FFF784FEFA2007F001
:102860001FFA17494FF000024FF00003C1E900239F
:10287000FFF700FE134B1B6840F2DC525A63114B0A
:102880001B6846229A6304E0FFF76CFE0A2007F0FB
:1028900007FA7B685B421846FDF744FE084BD3E914
:1028A0000023FEF71BF90346002BEDD1FFF7FEFBDB
:1028B0007F20FFF777FE00BF0837BD4680BD00BF11
:1028C000080900201808002080B582B000AF7860A9
:1028D000FFF72AFEFA2007F0E3F916494FF000024D
:1028E0004FF00003C1E90023FFF7C4FD124B1B6842
:1028F00046225A63104B1B6840F2DC529A6304E094
:10290000FFF712FE0A2007F0CBF97868FDF70AFE00
:10291000084BD3E90023FEF7FFF80346002BEFD165
:10292000FFF7C4FB9120FFF73DFE00BF0837BD460F
:1029300080BD00BF080900201808002080B582B0C3
:1029400000AF7860FFF70EFEFA2007F0A9F91649EC
:102950004FF000024FF00003C1E90023FFF7A4FD90
:10296000124B1B6840F2DC525A63104B1B680A2260
:102970009A6304E0FFF7F6FD0A2007F091F9786802
:10298000FDF7D0FD084BD3E90023FEF7C5F8034659
:10299000002BEFD1FFF78AFB7F20FFF703FE00BF7C
:1029A0000837BD4680BD00BF080900201808002078
:1029B00080B582B000AF7860FFF7B6FDFA2007F06F
:1029C0006FF917494FF000024FF00003C1E90023EF
:1029D000FFF76AFD134B1B6832225A63114B1B68C9
:1029E00040F2DC529A6304E0FFF79EFD0A2007F0F4
:1029F00057F97B685B421846FDF794FD084BD3E915
:102A00000023FEF76BF80346002BEDD1FFF74EFBDA
:102A10009120FFF7C7FD00BF0837BD4680BD00BF4E
:102A2000080900201808002080B500AF002106200A
:102A300000F08AF80A2007F04EF98021032000F008
:102A400083F80A2007F047F93F21072000F07CF8BF
:102A50000A2007F040F90121062000F075F80A204D
:102A600007F039F920217F2000F06EF80A2007F0E6
:102A700032F92F21012000F067F80A2007F02BF926
:102A80000021002000F060F80A2007F024F92F212F
:102A9000012000F059F80A2007F01DF9002100205C
:102AA00000F052F80A2007F016F900217F2000F00C
:102AB0004BF80A2007F00FF90021072000F044F836
:102AC0000A2007F008F900BF80BD000080B584B07F
:102AD00000AF7860174B1B68002B1CD1164B1B787E
:102AE000FB73154B5B78BB73134B9B78303B6422B5
:102AF00002FB03F1104BDB78A3F1300213469B007D
:102B000013445B00CA180C4B1B79303B1344BB6069
:102B1000084B01221A60094B01221A60084B1B68FE
:102B20009BB21A460449074806F011F800BF103757
:102B3000BD4680BDE8080020CC080020E408002045
:102B4000000000206008002080B584B002AF03467A
:102B50000A46FB711346BB710A4AFB791370094A96
:102B6000BB795370084B1B789BB25B0099B214235E
:102B700000930223034A054802F05CFF00BF0837B8
:102B8000BD4680BDEC08002004000020A406002003
:102B900080B584B002AF03463960FB710F4AFB7900
:102BA00013700F4B1B789BB25B0099B20A23009302
:102BB00001230A4A0B4802F03DFF094B1B789BB2E8
:102BC0005B0099B21423009302233A68054803F08E
:102BD0002FF800BF0837BD4680BD00BFEC080020BD
:102BE00004000020A406002080B483B000AF034698
:102BF000FB80094B1B6800225A6200BF064B1B6812
:102C00005A6AFB889A42F9D300BF00BF0C37BD4611
:102C10005DF8047B704700BFD00700200000000073
:102C200080B582B000AF78607B681B7F012B40F0DD
:102C30008380454B1B78002B1AD10021786805F062
:102C40001FF90346414A13603F4B01221A707B680B
:102C50001B681A6A7B681B6822F00A021A627B688A
:102C60001B681A6A7B681B6842F002021A6263E002
:102C7000354B1B78012B5FD10021786805F000F9F6
:102C80000346334A13607B681B6800225A62304B4C
:102C90001A682E4B1B689A4207D92D4B1A682B4B8A
:102CA0001B68D31A2B4A13600FE0284B1A68284B75
:102CB0001B689A4209D9264B1A68244B1B68D31A01
:102CC00003F57F43FF33234A1360224B1B681846EA
:102CD000FDF718FC1AA3D3E90023FDF78DFC02468B
:102CE0000B46104619464FF000024FF08043FDF7A7
:102CF000ADFD02460B4610461946FDF755FF03464B
:102D0000DAB2154B1A70104B00221A707B681B68E0
:102D10001A6A7B681B6822F00A021A627B681A68CA
:102D20007B681B68126A1A620C4B1B68DA680B4BD3
:102D30001B6822F00202DA6000BF0837BD4680BD82
:102D40009CC420B07268A13F680900205C09002083
:102D5000600900206409002006000020D007002040
:102D600080B500AF01224FF400610B4802F004FD72
:102D70000A20FFF739FF00224FF40061064802F0F5
:102D8000FBFC064B1B68DA68044B1B6842F002022E
:102D9000DA6000BF80BD00BF00100240D0070020F5
:102DA000B0B500AF4C4801F0EBFD0A214A4801F0F4
:102DB000ECFE494801F074FF03469AB2474B1A8073
:102DC000454801F0AFFE454B1B881846FDF7AAFBAE
:102DD00037A3D3E90023FDF70FFC02460B46144648
:102DE0001D463F4B1B681846FDF7AEFB32A3D3E9E7
:102DF0000023FDF701FC02460B4620462946FDF75D
:102E000045FA02460B4610461946FDF7EDFE03460D
:102E1000334A1360324BD3ED007AFDEEE77A17EEBA
:102E2000903A9AB22F4B1A802D4B1B681846FDF72B
:102E30008BFB02460B4643EC102B0CF051FC51EC83
:102E4000100B1FA3D3E90023FDF7D6FB02460B4668
:102E5000104619461CA3D3E90023FDF717FA0246D2
:102E60000B4643EC172BB0EE471AF0EE671A9FEDB6
:102E7000180B0CF073FC53EC102B10461946FDF7A1
:102E8000B3FE0346184A1360174BD3ED007AFDEEEC
:102E9000E77A17EE903A9AB2144B1A80134B1B88BC
:102EA0001A46134913480AF0C7F800BFB0BD00BF67
:102EB000333333333333C33F333333333333EB3F82
:102EC000AAF1D24D6210FCBFA8C64B3789411C4005
:102ED0000000000000002440140600209A09002091
:102EE00010000020880900208C0900209009002093
:102EF000D00A0108A0090020B0B500AF4C4801F08D
:102F00003FFD0A214A4801F040FE494801F0C8FE51
:102F100003469AB2474B1A80454801F003FE454BE1
:102F20001B881846FDF7FEFA37A3D3E90023FDF707
:102F300063FB02460B4614461D463F4B1B68184672
:102F4000FDF702FB32A3D3E90023FDF755FB024650
:102F50000B4620462946FDF799F902460B461046D6
:102F60001946FDF741FE0346334A1360324BD3ED59
:102F7000007AFDEEE77A17EE903A9AB22F4B1A805C
:102F80002D4B1B681846FDF7DFFA02460B4643EC53
:102F9000102B0CF0A5FB51EC100B1FA3D3E9002361
:102FA000FDF72AFB02460B46104619461CA3D3E93F
:102FB0000023FDF76BF902460B4643EC172BB0EEEE
:102FC000471AF0EE671A9FED180B0CF0C7FB53EC95
:102FD000102B10461946FDF707FE0346184A1360EA
:102FE000174BD3ED007AFDEEE77A17EE903A9AB2DE
:102FF000144B1A80134B1B881A46134913480AF0C6
:103000001BF800BFB0BD00BF333333333333C33F8E
:10301000333333333333EB3FAAF1D24D6210FCBF6D
:10302000A8C64B3789411C40000000000000244026
:103030005C0600209C09002014000020920900205A
:103040009409002098090020E00A0108B409002032
:1030500080B588B000AF78604FF0FF33FB61B74BAD
:1030600000221A70B54B00225A70B44B00225A60ED
:10307000B3494FF000024FF00003C1E90023B1490A
:103080004FF000024FF00003C1E90023AE494FF0BA
:1030900000024FF00003C1E9002300237B834FF4BB
:1030A0007A7006F0FDFDA94B01221A6000237B61B6
:1030B00000233B614FF6FF730822A549A54805F0A0
:1030C000B4FCFFF76DFEFFF717FFA04B1B68002B4A
:1030D00000F04882A049A14809F0CEFF03461A46F5
:1030E0009F4B1A60994B00221A604FF47A7006F0D9
:1030F000D7FD32E29B494FF000024FF00003C1E9D7
:103100000023974B1B681846FDF762F80346022B15
:103110000ED9934B1B680233184609F0DFFA0346B9
:103120001846FDF7FFF902460B468E49C1E9002318
:103130008B4B1B681B78413B142B00F2E58101A2ED
:1031400052F823F099310008E732000809350008E9
:103150000935000809350008D5310008093500088F
:103160000935000809350008093500080935000847
:1031700009350008093500080935000877340008CA
:10318000F33400080935000809350008093500083E
:103190000935000833340008FEF79AFF642006F072
:1031A0007FFD714B1B781846FDF7BCF96D4BD3E9D9
:1031B0000023FDF79DFC0346002B0AD0FEF776FFA7
:1031C0004FF6FF7301226949624805F02EFC00BFEB
:1031D000B4E1E1E7624B1B6801331B78572B23D125
:1031E00057494FF000024FF00003C1E900235D4B47
:1031F000D3E9002310461946FDF7F6FC03460021EB
:10320000012000EE103AFFF7E5F94D494FF00002BA
:103210004FF00003C1E900234FF6FF730122534929
:103220004C4805F002FC82E14D4B1B6801331B78D2
:103230004C2B28D14B4BD3E900234D49C1E9002346
:103240003F494FF000024FF00003C1E90023454B16
:10325000D3E9002310461946FDF77EFC03461846C5
:10326000FFF732FB36494FF000024FF00003C1E98F
:1032700000234FF6FF7301223C49364805F0D5FB89
:10328000FEF714FF53E1364B1B6801331B78522BBA
:1032900040F04D81334BD3E900233549C1E9002388
:1032A00027494FF000024FF00003C1E900232D4BE6
:1032B000D3E9002310461946FDF74EFC0346184695
:1032C000FFF7C6FA1E494FF000024FF00003C1E9B4
:1032D00000234FF6FF73012224491E4805F0A5FB89
:1032E000FEF7E4FE23E11E4B1B6801331B78572BCE
:1032F00040D113494FF000024FF00003C1E9002311
:10330000184BD3E9002310461946FDF76DFC034620
:103310000021002000EE103AFFF75CF908494FF059
:1033200000024FF00003C1E900234FF6FF730122B2
:103330000E49084805F079FBFBE000BF800900203A
:10334000080900204809002050090020E408002056
:10335000F00A0108600800202C170108CC080020A2
:10336000E0080020D808002005000020FC0A010821
:10337000100900207D4B1B6801331B784C2B28D192
:103380007B4BD3E900237B49C1E900237A494FF005
:1033900000024FF00003C1E90023754BD3E900237D
:1033A00010461946FDF7D8FB03461846FFF700FB09
:1033B00071494FF000024FF00003C1E900234FF6BE
:1033C000FF7301226D496E4805F02FFBFEF76EFE7C
:1033D000AFE0664B1B6801331B78522B40F0A9808D
:1033E000634BD3E900236349C1E9002362494FF0ED
:1033F00000024FF00003C1E900235D4BD3E9002335
:1034000010461946FDF7A8FB03461846FFF796FA43
:1034100059494FF000024FF00003C1E900234FF675
:10342000FF7301225549564805F0FFFAFEF73EFEAC
:103430007FE04E4B1B6801331B784C2B0AD15A207E
:10344000FEF788FF4FF6FF7301224C494C4805F008
:10345000ECFA70E0454B1B6801331B78522B6AD1A4
:103460005A20FEF733FF4FF6FF73012243494448C9
:1034700005F0DBFA5FE03D4B1B6801331B784C2BFA
:1034800018D1FEF75FFE40F2DC5001F011FA5A202D
:10349000FFF71AFAFEF71CFE642006F001FC394B18
:1034A0001B781E2BF6D8FEF701FE00BFB420FEF7F6
:1034B00095FF42E02D4B1B6801331B78522B3CD10A
:1034C000FEF740FE40F2DC5001F0F2F95A20FFF71F
:1034D000BFF9FEF7FDFD642006F0E2FB294B1B78E7
:1034E0001E2BF6D8FEF7E2FD00BFB420FEF79CFFCE
:1034F00023E05A20FEF72EFFFEF7EAFD4FF47A7024
:1035000001F0D6F9FEF7D2FDFEF7D0FD174B1A6891
:1035100007F10C031C49184609F08EFD00239AB2EE
:1035200007F10C016423164805F07FFA06E000BF9E
:1035300004E000BF02E000BF00E000BF0B4B1B68CF
:103540001B78FB731149002009F096FD03461A46CB
:10355000064B1A600A2006F0A3FB044B1B68002BE5
:103560007FF4C8AD0A2006F09BFBAAE5E008002026
:10357000D80800201009002008090020FC0A0108D2
:103580006008002005000020000B01082C1701082E
:1035900080B584B000AF7860104BFB60104A1421F6
:1035A0000A20FDF7CBFF0F4A0A210A20FDF7C6FFCC
:1035B0000D4A1E210A20FDF7C1FF0C4A28210A20CE
:1035C000FDF7BCFF0A4A32210A20FDF7B7FFFDF7DD
:1035D00041FE0A2006F064FBE0E700BF140B01087F
:1035E0006C090020CC08002018090020A009002048
:1035F000B409002080B5C0B000AF78600021B848A1
:1036000003F092FD0421B64803F08EFD0C21B5486D
:1036100003F08AFDB44B00221A60B44B00221A60FA
:10362000FEF728FFFEF75AFF4FF07E53C7F8EC3045
:103630000123C7F8E8304FF44863C7F8FC304FF473
:103640004863C7F8F8304FF44863C7F8F4304FF4D4
:103650004863C7F8F03007F19C031846FDF7B0FC4B
:1036600007F16C031846FDF7ABFC07F13C03184665
:10367000FDF7A6FC07F10C031846FDF7A1FCFEF7C9
:103680002DFF01F009F9C7F8E4000023C7F8E03086
:10369000974B01221A60462387F8D330432387F8DB
:1036A000D2301E23C7F8CC300123C7F8D83000230E
:1036B000C7F8D43001F0F0F80246D7F8E430D31A56
:1036C000642B40F2CE81894B1B68002B17D0874BAF
:1036D0001B68B3F1FF3F06D14FF08043C7F8EC30D1
:1036E0000123C7F8E830814B1B68012B0ED14FF046
:1036F0007E53C7F8EC300223C7F8E83006E04FF0FD
:103700007C53C7F8EC300223C7F8E830764B1B68CF
:10371000002B36D0754B1B68002B32D1754BD3E98B
:103720000001754BD3E90023FCF7AEFD02460B46C2
:10373000104619464FF00002704BFCF75DFF024641
:103740000B46104619464FF000026D4BFCF754FF34
:1037500002460B4610461946FDF7FEF90346C7F828
:10376000DC30D7F8DC30132B02DD1423C7F8DC3053
:10377000D7F8DC3013F1130F03DA6FF01303C7F837
:10378000DC30D7F8D830012B06D101F085F8C7F826
:10379000E0000023C7F8D830D7F8D430002B0BD185
:1037A00001F07AF80246D7F8E030D31AB3F5C87FB3
:1037B00002D90123C7F8D4304B4B1B68012B40F0D2
:1037C000AB80D7F8FC3007EE903AF8EEE76A97ED59
:1037D0003B7AC6EE877AFDEEE77A414B1B6817EE1F
:1037E000902A5A63D7F8F420D7F8E83092FBF3F226
:1037F0003B4B1B689A63D7F8D430012B57D1414B10
:103800001B6807EE903AB8EEE76A9FED3F7AD7ED76
:103810003B7AC7EE275AD7F8FC3007EE903AF8EE1D
:10382000E76A97ED3B7AC6EE877AFDEEE77A07F115
:103830009C0317EE901AF0EE650AB0EE460A1846A1
:10384000FDF7E0FB07EE900AB8EEE77AD7ED3B7A9A
:1038500067EE277AFDEEE77A17EE903AC7F8FC306C
:103860002A4B1B6807EE903AF8EEE77A4FF448626D
:10387000D7F8E83092FBF3F307EE103AB8EEC77AC8
:10388000D7F8F420D7F8E83092FBF3F207F16C0395
:103890001146F0EE470AB0EE670A1846FDF7B2FB94
:1038A0000246D7F8E83002FB03F3C7F8F430D7F844
:1038B000FC3007EE903AF8EEE76A97ED3B7AC6EEF9
:1038C000877AFDEEE77A17EE902A114B1A60D7F847
:1038D000F420D7F8E83092FBF3F30E4A1360BCE013
:1038E00018080020F8060020380900205809002098
:1038F000E80800201009002000090020000008400E
:10390000000022403C0900200000484540090020FA
:103910002C09002030090020544B1B68B3F1FF3FF5
:1039200040F08F80D7F8F83007EE903AF8EEE76A6B
:1039300097ED3B7AC6EE877A4D4B1B68FCEEE77A33
:1039400017EE902A5A63D7F8F020D7F8E83092FBA8
:10395000F3F2474B1B689A63D7F8D430012B57D149
:10396000444B1B6807EE903AB8EEE76A9FED427A47
:10397000D7ED3B7AC7EE275AD7F8F83007EE903AE2
:10398000F8EEE76A97ED3B7AC6EE877AFDEEE77AC6
:1039900007F13C0317EE901AF0EE650AB0EE460A06
:1039A0001846FDF72FFB07EE900AB8EEE77AD7ED41
:1039B0003B7A67EE277AFDEEE77A17EE903AC7F882
:1039C000F8302E4B1B6807EE903AF8EEE77A4FF48A
:1039D0004862D7F8E83092FBF3F307EE103AB8EEFE
:1039E000C77AD7F8F020D7F8E83092FBF3F207F166
:1039F0000C031146F0EE470AB0EE670A1846FDF7D1
:103A000001FB0246D7F8E83002FB03F3C7F8F030B9
:103A1000D7F8F83007EE903AF8EEE76A97ED3B7A80
:103A2000C6EE877AFDEEE77A17EE902A144B1A60FD
:103A3000D7F8F020D7F8E83092FBF3F3114A13607F
:103A40000BE00F4B00221A600E4B00221A6000237D
:103A5000C7F8D4300023C7F8DC3000F01DFFC7F8EA
:103A6000E4000A2006F01CF924E600BF3809002013
:103A7000180800203C0900200000484540090020AB
:103A80002C09002030090020B0B58EB000AF78605E
:103A90003C217B4803F038FE3C217A4803F034FE99
:103AA000774B1B685B6A7B63764B1B685B6AFB62C8
:103AB00000F0F2FE786200F0EFFE38623A6A7B6A4C
:103AC000D31A322B40F2D7806D4B1B685B6AFB61C7
:103AD0006C4B1B685B6ABB61694B1B681B6803F01E
:103AE0001003102B12D1FA697B6B9A4204DC7A6BBB
:103AF000FB69D31A3B6306E0FB69C3F57F43FF33E1
:103B00007A6B13443B6301237B6112E0FA697B6BA0
:103B10009A4204DBFA697B6BD31A3B6306E07B6B4A
:103B2000C3F57F43FF33FA6913443B634FF0FF3320
:103B30007B61544B1B681B6803F01003102B13D1DF
:103B4000BA69FB6A9A4204DCFA6ABB69D31ABB629F
:103B500006E0BB69C3F57F43FF33FA6A1344BB62D7
:103B60004FF0FF333B6111E0BA69FB6A9A4204DB14
:103B7000BA69FB6AD31ABB6206E0FB6AC3F57F43EE
:103B8000FF33BA691344BB6201233B613A6A7B6A23
:103B9000D31AFB604FF47A72FB68B2FBF3F33A6B13
:103BA00002FB03F31A46384B1A604FF47A72FB6833
:103BB000B2FBF3F3BA6A02FB03F31A46334B1A6003
:103BC000386BFCF7AFFC04460D46314B93ED007AA1
:103BD000304B1B6807EE903AF8EEE77AC7EE276A9B
:103BE00016EE900AFCF7B0FC02460B46204629462A
:103BF000FCF702FD02460B4610461946264BD3E958
:103C00000023FCF743FB02460B462349C1E900238E
:103C1000B86AFCF787FC04460D461D4B93ED007A0D
:103C20001C4B1B6807EE903AF8EEE77AC7EE276A5E
:103C300016EE900AFCF788FC02460B462046294601
:103C4000FCF7DAFC02460B4610461946134BD3E943
:103C50000023FCF71BFB02460B461049C1E9002379
:103C6000074B1B685B6A7B63064B1B685B6AFB62E6
:103C700000F012FE78620A2006F012F81BE700BF7F
:103C800040070020880700203C0900204009002050
:103C90000C000020080000204809002050090020E6
:103CA00080B582B000AF7860012005F0F9FFFBE736
:103CB00080B582B000AF7860012005F0F1FFFBE72E
:103CC00080B582B000AF7860012005F0E9FFFBE726
:103CD00080B58AB000AF786000213C4803F046FB15
:103CE00000237B6200233B620023FB610023BB6156
:103CF00000237B6100233B610023FB6030E0FFF782
:103D00002FF8334B1B787B62314B1B781A467B6A4A
:103D1000934203D1BB690133BB611EE02C4B1B787E
:103D20001A467B6A934206D0294B1B783B627B691B
:103D300001337B6111E0264B1B781A467B6A934264
:103D40000BD0234B1B781A463B6A934205D0204B7D
:103D50001B78FB613B6901333B61FB680133FB600E
:103D6000FB681D2BCBDDBA697B699A4208DDBA6915
:103D70003B699A4204DD7B6ADAB2164B1A7018E08E
:103D80007A69BB699A4208DD7A693B699A4204DD27
:103D90003B6ADAB20F4B1A700BE03A69BB699A4280
:103DA00007DD3A697B699A4203DDFB69DAB2094BA8
:103DB0001A70084B1B7807331A460749074809F061
:103DC0003BF9322005F06CFF96E700BFD0070020DA
:103DD00006000020050000202C0B01086C090020C3
:103DE000B0B58CB000AF78606AA3D3E90023C7E90F
:103DF00008230023BB810023FB830023FB620023F5
:103E0000BB62FEF711FE00F047FDF86200F044FDD2
:103E1000B8620A2005F05FFF0A2005F041FF00F0BC
:103E20003BFD0246FB6AD31A632B40F2898007F1FF
:103E30000C0319463720FEF7ABFE3B7B1B021AB280
:103E40007B7B1BB21343FB83B7F91E301846FCF78C
:103E500069FBD7E90823FCF719FA02460B4614461A
:103E60001D4600F019FD0246FB6AD31A1846FCF7FE
:103E700049FB4AA3D3E90023FCF7E8FC02460B46C2
:103E800020462946FCF7B8FB02460B46C7E9042347
:103E9000394BD3E90001D7E90423FCF7F7F90246CF
:103EA0000B463549C1E90023344BD3E90001D7E97A
:103EB0000423FCF7EBF902460B463049C1E9002325
:103EC0002D4BD3E900014FF000022D4BFCF71AFEF9
:103ED0000346002B0CD0284BD3E900014FF0000221
:103EE000274BFCF7D1F902460B462349C1E90023D1
:103EF000214BD3E900014FF00002224BFCF7F8FD03
:103F00000346002B0CD01C4BD3E900014FF00002FC
:103F10001B4BFCF7BBF902460B461749C1E90023CE
:103F2000164BD3E9002310461946FCF715FE03464D
:103F30001A461549154809F07FF800F0ADFCF86203
:103F400000F0AAFC0246BB6AD31AB3F5C86FFFF4AF
:103F500063AF0A4BD3E900014FF000020C4BFCF7B2
:103F600093F902460B460549C1E9002300F094FC91
:103F7000B86251E7AFF30080000900200809002073
:103F800000808640008086C03C0B01081809002094
:103F90000000F03F449F769541651F4000000000FF
:103FA0000004D04080B582B000AF7860012005F0F9
:103FB00077FEFBE780B400AF72B600BFFEE70000FB
:103FC00080B582B000AF00237B60124B5B6C114A5E
:103FD00043F4804353640F4B5B6C03F480437B607A
:103FE0007B6800233B600B4B1B6C0A4A43F08053F9
:103FF0001364084B1B6C03F080533B603B6800224A
:104000000F216FF0010001F052F900BF0837BD46E3
:1040100080BD00BF0038024080B58CB000AF786032
:1040200007F11C0300221A605A609A60DA601A6174
:104030007B681B682E4A934228D10023BB612D4B1D
:104040005B6C2C4A43F4807353642A4B5B6C03F41F
:104050008073BB61BB6900237B61264B1B6B254AC8
:1040600043F004031363234B1B6B03F004037B61D6
:104070007B690223FB6103233B6200237B6207F120
:104080001C0319461C4801F0DBF92CE07B681B6817
:104090001A4A934227D100233B61164B5B6C154AA9
:1040A00043F400735364134B5B6C03F400733B6184
:1040B0003B690023FB600F4B1B6B0E4A43F004036C
:1040C00013630C4B1B6B03F00403FB60FB680423BE
:1040D000FB6103233B6200237B6207F11C0319464B
:1040E000054801F0ADF900BF3037BD4680BD00BFC7
:1040F0000020014000380240000802400021014039
:1041000080B58AB000AF786007F1140300221A600E
:104110005A609A60DA601A617B681B68194A934298
:104120002CD100233B61184B1B6B174A43F0020351
:104130001363154B1B6B03F002033B613B694FF4A8
:1041400040737B611223BB610023FB6103233B624D
:1041500004237B6207F1140319460C4801F070F93F
:104160000023FB60084B1B6C074A43F400131364E5
:10417000054B1B6C03F40013FB60FB6800BF283782
:10418000BD4680BD0054004000380240000402409B
:1041900080B58CB000AF786007F11C0300221A6074
:1041A0005A609A60DA601A617B681B68444A9342DD
:1041B00016D10023BB61434B5B6C424A43F00103C1
:1041C0005364404B5B6C03F00103BB61BB6900228D
:1041D00005211B2001F06BF81B2001F084F86BE037
:1041E0007B681B68384A934235D100237B61354B8D
:1041F0001B6C344A43F004031364324B1B6C03F012
:1042000004037B617B6900233B612E4B1B6B2D4AB2
:1042100043F0080313632B4B1B6B03F008033B6154
:104220003B694FF48053FB6102233B6200237B62B6
:104230000023BB620223FB6207F11C0319462348DB
:1042400001F0FEF8002205211E2001F030F81E20AA
:1042500001F049F830E07B681B681D4A93422BD17E
:104260000023FB60174B5B6C164A43F00203536458
:10427000144B5B6C03F00203FB60FB680023BB6024
:10428000104B1B6B0F4A43F0040313630D4B1B6B66
:1042900003F00403BB60BB68C023FB6102233B62E5
:1042A00000237B620023BB620323FB6207F11C0334
:1042B0001946084801F0C4F800BF3037BD4680BD3C
:1042C000000001400038024000080040000C02409D
:1042D000000401400008024080B58CB000AF786057
:1042E00007F11C0300221A605A609A60DA601A61B2
:1042F0007B681B68B3F1804F53D10023BB61434BF4
:104300001B6C424A43F001031364404B1B6C03F0E7
:104310000103BB61BB6900237B613C4B1B6B3B4AC8
:1043200043F001031363394B1B6B03F001037B6103
:104330007B6900233B61354B1B6B344A43F002031E
:104340001363324B1B6B03F002033B613B694FF479
:104350000043FB6102233B6200237B620023BB62BC
:104360000123FB6207F11C031946294801F068F894
:104370000823FB6102233B6200237B620023BB62B4
:104380000123FB6207F11C031946224801F058F88B
:10439000002205211C2000F08AFF1C2000F0A3FF52
:1043A00030E07B681B681C4A93422BD10023FB60E2
:1043B000164B1B6C154A43F002031364134B1B6C22
:1043C00003F00203FB60FB680023BB600F4B1B6B19
:1043D0000E4A43F0010313630C4B1B6B03F0010304
:1043E000BB60BB68C023FB6102233B6200237B628E
:1043F0000023BB620223FB6207F11C031946044839
:1044000001F01EF800BF3037BD4680BD00380240C5
:1044100000000240000402400004004080B588B063
:1044200000AF786007F10C0300221A605A609A60AE
:10443000DA601A617B681B68124A93421ED100231E
:10444000BB60114B1B6B104A43F0100313630E4B00
:104450001B6B03F01003BB60BB684FF48043FB6031
:1044600002233B6100237B610023BB610123FB61CD
:1044700007F10C031946054800F0E2FF00BF2037A2
:10448000BD4680BD000001400038024000100240DF
:1044900080B58AB000AF786007F1140300221A607B
:1044A0005A609A60DA601A617B681B681D4A934201
:1044B00034D100233B611C4B1B6C1B4A43F480230B
:1044C0001364194B1B6C03F480233B613B6900238D
:1044D000FB60154B1B6B144A43F004031363124B30
:1044E0001B6B03F00403FB60FB684FF440637B61CC
:1044F0000223BB610023FB6103233B6207237B6232
:1045000007F114031946094800F09AFF002205211B
:10451000272000F0CCFE272000F0E5FE00BF283762
:10452000BD4680BD004800400038024000080240FF
:1045300080B400AFFEE780B400AFFEE780B400AF08
:10454000FEE780B400AFFEE780B400AFFEE780B4C2
:1045500000AF00BFBD465DF8047B704780B500AF7B
:1045600000F086F907F054F80346012B01D007F05C
:104570003BFE00BF80BD000080B500AF024803F0E5
:1045800051F900BF80BD00BFF806002080B500AF24
:10459000024803F047F900BF80BD00BF400700207C
:1045A00080B500AF024803F03DF900BF80BD00BFF9
:1045B000D007002080B500AF024804F0F9FA00BF30
:1045C00080BD00BF6008002080B400AF0123184602
:1045D000BD465DF8047B704780B582B000AF78605F
:1045E000396008F07FF8034616221A604FF0FF3357
:1045F00018460837BD4680BD80B582B000AF7860F0
:104600004FF0FF317868FFF7E7FFFEE780B586B02F
:1046100000AFF860B9607A6000237B610AE0AFF315
:1046200000800146BB685A1CBA60CAB21A707B6926
:1046300001337B617A697B689A42F0DB7B681846BC
:104640001837BD4680BD80B586B000AFF860B96050
:104650007A6000237B6109E0BB685A1CBA601B7852
:104660001846AFF300807B6901337B617A697B6810
:104670009A42F1DB7B6818461837BD4680BD80B48E
:1046800083B000AF78604FF0FF3318460C37BD465B
:104690005DF8047B704780B483B000AF7860396008
:1046A0003B684FF400525A60002318460C37BD4651
:1046B0005DF8047B704780B483B000AF786001235D
:1046C00018460C37BD465DF8047B704780B485B052
:1046D00000AFF860B9607A60002318461437BD4611
:1046E0005DF8047B7047000080B586B000AF78604D
:1046F000144A154BD31A7B617B693B61134B1B68D2
:10470000002B02D1114B124A1A60104B1A687B68B9
:1047100013443A699A4207D207F0E4FF03460C2299
:104720001A604FF0FF3309E0084B1B68FB60074B32
:104730001A687B681344054A1360FB6818461837EB
:10474000BD4680BD0000022000040000C809002012
:104750003053002080B400AF064BD3F88830054AB0
:1047600043F47003C2F8883000BFBD465DF8047B97
:10477000704700BF00ED00E0DFF834D00D480E496F
:104780000E4A002302E0D458C4500433C4188C42AB
:10479000F9D30B4A0B4C002301E013600432A24210
:1047A000FBD3FFF7D7FF07F0A3FFFCF785FF7047A8
:1047B0000000022000000020F8010020C81B0108B2
:1047C000F801002030530020FEE7000080B500AF64
:1047D0000E4B1B680D4A43F4007313600B4B1B68B0
:1047E0000A4A43F480631360084B1B68074A43F48A
:1047F00080731360032000F04FFD0F2000F008F8D5
:10480000FFF7DEFB0023184680BD00BF003C0240DE
:1048100080B582B000AF7860124B1A68124B1B78DB
:1048200019464FF47A73B3FBF1F3B2FBF3F3184676
:1048300000F067FD0346002B01D001230EE07B68EA
:104840000F2B0AD8002279684FF0FF3000F02FFDBF
:10485000064A7B681360002300E0012318460837EE
:10486000BD4680BD18000020200000201C00002054
:1048700080B400AF064B1B781A46064B1B681344E6
:10488000044A136000BFBD465DF8047B704700BF5B
:1048900020000020CC09002080B400AF034B1B682F
:1048A0001846BD465DF8047B704700BFCC09002068
:1048B00080B584B000AF7860FFF7EEFFB8607B682A
:1048C000FB60FB68B3F1FF3F05D00A4B1B781A462B
:1048D000FB681344FB6000BFFFF7DEFF0246BB68C6
:1048E000D31AFA689A42F7D800BF00BF1037BD4606
:1048F00080BD00BF2000002080B584B000AF78608C
:104900000023FB737B68002B01D1012333E07B681C
:104910001B6C002B09D17868FFF77EFB7B680022B7
:104920005A647B68002283F83C207B681B6C03F090
:104930001003002B18D17B681B6C23F4885323F0E1
:10494000020343F002027B681A64786800F0D8FA28
:104950007B6800225A647B681B6C23F0030343F0DE
:1049600001027B681A6401E00123FB737B6800226B
:1049700083F83C20FB7B18461037BD4680BD000005
:1049800080B485B000AF78600023BB607B6893F88B
:104990003C30012B01D10223B2E07B68012283F875
:1049A0003C207B681B689B6803F00103012B18D037
:1049B0007B681B689A687B681B6842F001029A60FA
:1049C000524B1B68524AA2FB03239A0C13465B000E
:1049D0001344BB6002E0BB68013BBB60BB68002BBB
:1049E000F9D17B681B689B6803F00103012B7AD126
:1049F0007B681B6C23F4E06323F0010343F48072B3
:104A00007B681A647B681B685B6803F48063002B17
:104A100007D07B681B6C23F4405343F480527B68BF
:104A20001A647B681B6C03F48053B3F5805F06D176
:104A30007B685B6C23F006027B685A6402E07B684B
:104A400000225A647B68002283F83C20314BFB60D3
:104A50007B681B686FF022021A60FB685B6803F0DA
:104A60001F03002B2AD17B681B682B4A934215D069
:104A70007B681B68294A934205D1264B5B6803F08B
:104A80001F03002B0AD07B681B68254A934236D14E
:104A9000204B5B6803F01003002B30D17B681B6850
:104AA0009B6803F04053002B29D17B681B689A68F0
:104AB0007B681B6842F080429A6020E07B681B683C
:104AC000154A93421BD17B681B689B6803F04053D7
:104AD000002B14D17B681B689A687B681B6842F0C6
:104AE00080429A600BE07B681B6C43F010027B688D
:104AF0001A647B685B6C43F001027B685A64002394
:104B000018461437BD465DF8047B70471800002036
:104B100083DE1B43002301400020014000210140AF
:104B20000022014080B483B000AF78607B6893F8C6
:104B30003C30012B01D1022321E07B68012283F864
:104B40003C207B681B689A687B681B6822F0010226
:104B50009A607B681B689B6803F00103002B09D1F6
:104B60007B681B6C23F4885323F0010343F001029C
:104B70007B681A647B68002283F83C200023184677
:104B80000C37BD465DF8047B704780B584B000AF3C
:104B9000786039600023FB607B681B689B6803F4C6
:104BA0008063B3F5806F13D17B681B689B6803F447
:104BB0008073B3F5807F0BD17B681B6C43F02002C0
:104BC0007B681A647B68002283F83C20012363E041
:104BD000FFF762FEF86021E03B68B3F1FF3F1DD0B4
:104BE0003B68002B07D0FFF757FE0246FB68D31A3D
:104BF0003A689A4212D27B681B681B6803F0020372
:104C0000022B0BD07B681B6C43F004027B681A6498
:104C10007B68002283F83C2003233DE07B681B680F
:104C20001B6803F00203022BD6D17B681B686FF070
:104C300012021A607B681B6C43F400727B681A6472
:104C40007B681B689B6803F04053002B23D17B6873
:104C50001B7E002B1FD17B681B68DB6A03F470038B
:104C6000002B06D07B681B689B6803F48063002BD5
:104C700011D17B681B6C23F480727B681A647B689B
:104C80001B6C03F48053002B05D17B681B6C43F035
:104C900001027B681A64002318461037BD4680BDA8
:104CA00080B483B000AF78607B681B68DB6C18460B
:104CB0000C37BD465DF8047B7047000080B485B0BA
:104CC00000AF786039600023BB607B6893F83C30AC
:104CD000012B01D1022305E17B68012283F83C20EE
:104CE0003B681B68092B25D97B681B68D9683B6822
:104CF0001B689BB21A4613465B0013441E3B0722F7
:104D000002FA03F3DA437B681B680A40DA607B68C7
:104D10001B68D9683B689A683B681B689BB2184659
:104D200003465B0003441E3B9A407B681B680A43B2
:104D3000DA6022E07B681B6819693B681B689BB2DC
:104D40001A4613465B001344072202FA03F3DA43C0
:104D50007B681B680A401A617B681B6819693B689D
:104D60009A683B681B689BB2184603465B00034485
:104D70009A407B681B680A431A613B685B68062B94
:104D800024D87B681B68596B3B685A6813469B00A4
:104D90001344053B1F2202FA03F3DA437B681B68C6
:104DA0000A405A637B681B68596B3B681B689BB25F
:104DB00018463B685A6813469B001344053B00FAAB
:104DC00003F27B681B680A435A634CE03B685B68EC
:104DD0000C2B24D87B681B68196B3B685A681346F8
:104DE0009B001344233B1F2202FA03F3DA437B6840
:104DF0001B680A401A637B681B68196B3B681B6859
:104E00009BB218463B685A6813469B001344233BE9
:104E100000FA03F27B681B680A431A6323E07B688D
:104E20001B68D96A3B685A6813469B001344413B90
:104E30001F2202FA03F3DA437B681B680A40DA6236
:104E40007B681B68D96A3B681B689BB218463B6845
:104E50005A6813469B001344413B00FA03F27B68F7
:104E60001B680A43DA62224BFB607B681B68214A9D
:104E7000934209D13B681B68122B05D1FB685B6824
:104E800043F48002FB685A607B681B68194A9342AE
:104E900023D13B681B68102B03D03B681B68112B88
:104EA0001BD1FB685B6843F40002FB685A603B68F7
:104EB0001B68102B11D1104B1B68104AA2FB032357
:104EC0009A0C13469B0013445B00BB6002E0BB6876
:104ED000013BBB60BB68002BF9D17B68002283F8E3
:104EE0003C20002318461437BD465DF8047B70470C
:104EF00000230140002001401800002083DE1B43F6
:104F000080B485B000AF7860794BFB60FB685B686C
:104F100023F44032FB685A60FB685A687B685B6820
:104F20001A43FB685A607B681B685A687B681B6879
:104F300022F480725A607B681B6859687B681B6921
:104F40001A027B681B680A435A607B681B685A68B0
:104F50007B681B6822F040725A607B681B68596846
:104F60007B689A687B681B680A435A607B681B6889
:104F70009A687B681B6822F400629A607B681B68F1
:104F800099687B68DA687B681B680A439A607B686B
:104F90009B6A584A934222D07B681B689A687B6858
:104FA0001B6822F070629A607B681B6899687B6856
:104FB0009A6A7B681B680A439A607B681B689A68D8
:104FC0007B681B6822F040529A607B681B68996876
:104FD0007B68DA6A7B681B680A439A600FE07B682B
:104FE0001B689A687B681B6822F070629A607B6815
:104FF0001B689A687B681B6822F040529A607B6845
:105000001B689A687B681B6822F002029A607B68C2
:105010001B6899687B681B7E5A007B681B680A4383
:105020009A607B6893F82030002B1BD07B681B684C
:105030005A687B681B6842F400625A607B681B6890
:105040005A687B681B6822F460425A607B681B6860
:1050500059687B685B6A013B5A037B681B680A439B
:105060005A6007E07B681B685A687B681B6822F4FB
:1050700000625A607B681B68DA6A7B681B6822F4EE
:105080007002DA627B681B68D96A7B68DB69013B66
:105090001A057B681B680A43DA627B681B689A689A
:1050A0007B681B6822F400729A607B681B689968B1
:1050B0007B6893F830305A027B681B680A439A6019
:1050C0007B681B689A687B681B6822F480629A6020
:1050D0007B681B6899687B685B699A027B681B68C0
:1050E0000A439A6000BF1437BD465DF8047B7047E1
:1050F000002301400100000F80B485B000AF78604C
:105100007B6803F00703FB600C4BDB68BB60BA688D
:105110004FF6FF031340BB60FB681A02BB681343E2
:1051200043F0BF6343F40033BB60044ABB68D36001
:1051300000BF1437BD465DF8047B704700ED00E00A
:1051400080B400AF044BDB681B0A03F0070318466A
:10515000BD465DF8047B704700ED00E080B483B08D
:1051600000AF0346FB7197F90730002B0BDBFB798F
:1051700003F01F02074997F907305B09012000FA85
:1051800002F241F8232000BF0C37BD465DF8047BD6
:10519000704700BF00E100E080B483B000AF034679
:1051A0003960FB7197F90730002B0ADB3B68DAB2F4
:1051B0000C4997F907301201D2B20B4483F800234F
:1051C0000AE03B68DAB20849FB7903F00F03043BBD
:1051D0001201D2B20B441A7600BF0C37BD465DF8FF
:1051E000047B704700E100E000ED00E080B489B08E
:1051F00000AFF860B9607A60FB6803F00703FB61F9
:10520000FB69C3F10703042B28BF0423BB61FB69BF
:105210000433062B02D9FB69033B00E000237B61CA
:105220004FF0FF32BB6902FA03F3DA43BB681A405E
:105230007B699A404FF0FF317B6901FA03F3D94350
:105240007B680B40134318462437BD465DF8047B4A
:105250007047000080B582B000AF78607B68013B8A
:10526000B3F1807F01D301230FE00A4A7B68013B41
:1052700053600F214FF0FF30FFF78EFF054B0022E8
:105280009A60044B07221A60002318460837BD466F
:1052900080BD00BF10E000E080B582B000AF786054
:1052A0007868FFF729FF00BF0837BD4680BD80B58D
:1052B00086B000AF0346B9607A60FB7300237B6160
:1052C000FFF73EFF78617A68B9687869FFF78EFF6B
:1052D000024697F90F3011461846FFF75DFF00BFF1
:1052E0001837BD4680BD80B582B000AF0346FB7164
:1052F00097F907301846FFF731FF00BF0837BD4662
:1053000080BD80B582B000AF78607868FFF7A2FFFB
:10531000034618460837BD4680BD80B584B000AF4F
:1053200078607B689B6DFB60FFF7B6FAB8607B68BE
:1053300093F83530DBB2022B08D07B6880225A65A7
:105340007B68002283F83420012352E07B681B68CD
:105350001A687B681B6822F016021A607B681B685B
:105360005A697B681B6822F080025A617B681B6C5B
:10537000002B03D17B689B6C002B07D07B681B68DC
:105380001A687B681B6822F008021A607B681B6839
:105390001A687B681B6822F001021A6013E0FFF7AD
:1053A0007BFA0246BB68D31A052B0CD97B682022F6
:1053B0005A657B68032283F835207B68002283F8D6
:1053C0003420032315E07B681B681B6803F001038E
:1053D000002BE4D17B68DB6D3F229A40FB689A602A
:1053E0007B68012283F835207B68002283F8342013
:1053F000002318461037BD4680BD80B483B000AF8F
:1054000078607B6893F83530DBB2022B04D07B6880
:1054100080225A6501230CE07B68052283F8352041
:105420007B681B681A687B681B6822F001021A609F
:10543000002318460C37BD465DF8047B704700001A
:1054400080B489B000AF7860396000237B610023AD
:105450003B610023BB610023FB616BE10122FB691F
:1054600002FA03F37B613B681B687A6913403B6176
:105470003A697B699A4240F05A813B685B6803F065
:105480000303012B05D03B685B6803F00303022B89
:1054900030D17B689B68BB61FB695B00032202FA29
:1054A00003F3DB43BA691340BB613B68DA68FB690D
:1054B0005B0002FA03F3BA691343BB617B68BA6904
:1054C0009A607B685B68BB610122FB6902FA03F3A7
:1054D000DB43BA691340BB613B685B681B0903F09F
:1054E0000102FB6902FA03F3BA691343BB617B68EB
:1054F000BA695A603B685B6803F00303032B17D05B
:105500007B68DB68BB61FB695B00032202FA03F383
:10551000DB43BA691340BB613B689A68FB695B0077
:1055200002FA03F3BA691343BB617B68BA69DA60B4
:105530003B685B6803F00303022B23D1FB69DA08A5
:105540007B68083253F82230BB61FB6903F0070324
:105550009B000F2202FA03F3DB43BA691340BB61DD
:105560003B681A69FB6903F007039B0002FA03F327
:10557000BA691343BB61FB69DA087B680832B96911
:1055800043F822107B681B68BB61FB695B00032248
:1055900002FA03F3DB43BA691340BB613B685B6803
:1055A00003F00302FB695B0002FA03F3BA691343D9
:1055B000BB617B68BA691A603B685B6803F440337F
:1055C000002B00F0B4800023FB60604B5B6C5F4AF3
:1055D00043F4804353645D4B5B6C03F48043FB6096
:1055E000FB685B4AFB699B08023352F82330BB61BE
:1055F000FB6903F003039B000F2202FA03F3DB4372
:10560000BA691340BB617B68524A93422BD07B68D6
:10561000514A934225D07B68504A93421FD07B6801
:105620004F4A934219D07B684E4A934213D07B680D
:105630004D4A93420DD07B684C4A934207D07B6819
:105640004B4A934201D107230EE008230CE00623C6
:105650000AE0052308E0042306E0032304E0022314
:1056600002E0012300E00023FA6902F00302920045
:105670009340BA691343BB613549FB699B08023308
:10568000BA6941F823203B4B9B68BB613B69DB4314
:10569000BA691340BB613B685B6803F48013002B5D
:1056A00003D0BA693B691343BB61324ABB6993605B
:1056B000304BDB68BB613B69DB43BA691340BB61BC
:1056C0003B685B6803F40013002B03D0BA693B69A5
:1056D0001343BB61274ABB69D360264B5B68BB6140
:1056E0003B69DB43BA691340BB613B685B6803F409
:1056F0000033002B03D0BA693B691343BB611D4AD9
:10570000BB6953601B4B1B68BB613B69DB43BA69D8
:105710001340BB613B685B6803F48033002B03D00C
:10572000BA693B691343BB61124ABB691360FB69E9
:105730000133FB61FB690F2B7FF690AE00BF00BF0A
:105740002437BD465DF8047B704700BF0038024037
:1057500000380140000002400004024000080240FE
:10576000000C0240001002400014024000180240E9
:10577000001C0240003C014080B483B000AF786060
:105780000B467B8013467B707B78002B03D07A8896
:105790007B689A6103E07B881A047B689A6100BF8A
:1057A0000C37BD465DF8047B7047000080B584B0BF
:1057B00000AF78607B68002B01D101232BE17B686F
:1057C00093F83D30DBB2002B06D17B68002283F8D2
:1057D0003C207868FEF794FC7B68242283F83D2007
:1057E0007B681B681A687B681B6822F001021A60DC
:1057F0007B681B681A687B681B6842F400421A6069
:105800007B681B681A687B681B6822F400421A6078
:1058100001F0BAFBF8607B685B68814A934207D865
:10582000FB68804A934294BF01230023DBB206E069
:10583000FB687D4A934294BF01230023DBB2002B17
:1058400001D00123E7E0FB68784AA2FB03239B0C0D
:10585000BB607B681B685B6823F03F017B681B684B
:10586000BA680A435A607B681B681B6A23F03F01D1
:105870007B685B686A4A934202D8BB68013309E0DF
:10588000BB684FF4967202FB03F3694AA2FB032341
:105890009B0901337A6812680B4313627B681B68AB
:1058A000DB6923F44F4222F0FF027B685B685C49AE
:1058B0008B4219D8FB68591E7B685B685B00B1FBA3
:1058C000F3F3591C40F6FC730B40002B0AD0FB6825
:1058D000591E7B685B685B00B1FBF3F30133C3F3D4
:1058E0000B0351E004234FE07B689B68002B11D130
:1058F000FB68581E7B6859680B465B000B44B0FB85
:10590000F3F30133C3F30B03002B0CBF012300237C
:10591000DBB212E0FB68581E7B6859680B469B009F
:105920000B4499000B44B0FBF3F30133C3F30B03B7
:10593000002B0CBF01230023DBB2002B01D001237D
:1059400022E07B689B68002B0ED1FB68581E7B68A9
:1059500059680B465B000B44B0FBF3F30133C3F310
:105960000B0343F400430FE0FB68581E7B68596843
:105970000B469B000B4499000B44B0FBF3F301333F
:10598000C3F30B0343F44043796809681343CB61C5
:105990007B681B681B6823F0C0017B68DA697B6841
:1059A0001B6A1A437B681B680A431A607B681B6882
:1059B0009B6823F4034323F0FF037A6811697A6834
:1059C000D26811437A6812680B4393607B681B6846
:1059D000DB6823F0FF017B685A697B689B691A4387
:1059E0007B681B680A43DA607B681B681A687B68FF
:1059F0001B6842F001021A607B6800221A647B680F
:105A0000202283F83D207B6800221A637B680022F5
:105A100083F83E20002318461037BD4680BD00BFE6
:105A2000A08601007F841E00FF083D0083DE1B432B
:105A3000D34D621080B588B002AFF8607A601A4624
:105A40000B467B8113463B81FEF726FF7861FB689E
:105A500093F83D30DBB2202B40F0E0807B6900936F
:105A6000192301227049F86800F058FC0346002B06
:105A700001D00223D3E0FB6893F83C30012B01D125
:105A80000223CCE0FB68012283F83C20FB681B6802
:105A90001B6803F00103012B07D0FB681B681A6821
:105AA000FB681B6842F001021A60FB681B681A68F9
:105AB000FB681B6822F400621A60FB68212283F8ED
:105AC0003D20FB68102283F83E20FB6800221A6408
:105AD000FB687A685A62FB683A895A85FB685B8D75
